:020000020000FC
:10000000A8C21895189518951895189518951895CB
:1000100018951895189558C01895189592C0189568
:100020001895189518952227112738E0889400FF15
:1000300002C01A0F2B1F27951795079588943A959C
:10004000B1F708953327222760E1889400FF02C0AA
:100050002A0F3B1F379527951795079588946A9522
:10006000A9F7089524E0169507952A95E1F71695C6
:10007000079516950795089562E001C068E0889499
:1000800036952795179507956A95D1F70895CC244D
:10009000DD24EE24FF1871E2331F441F551F661F35
:1000A0007A9509F40895CC1CDD1CEE1CFF1CC01AC7
:1000B000D108E108F10830F4C00ED11CE11CF11C9C
:1000C0008894EACF0894E8CF2FB60F931F932F930D
:1000D0003F9324B135B107B10F71003079F400912D
:1000E000750010917600020F131F00937500109396
:1000F000760027B1207E216027B91CC00130D9F4D9
:100100000091730010917400020F131F009373008D
:100110001093740027B1207E206027B900917700EA
:1001200001500093770031F4009183000860009340
:10013000830001C0369A3F912F911F910F912FBEDE
:1001400018952FB60F931F932F93EF93FF93E09182
:100150006700F09168003196E0936700F0936800C3
:10016000E0916500F09166003196E0936500F093B0
:100170006600E0916300F09164003196E83E03E090
:10018000F00751F5EE27FF270091830002FF24C0FE
:1001900005FD0AC01092620010926100109260008A
:1001A00000620093830018C00091620003950C3335
:1001B00089F400271091610013951C3349F411272D
:1001C000209160002395283109F4222720936000B4
:1001D0001093610000936200E0936300F093640069
:1001E0000091830002FD03C00F7D00938300FF9107
:1001F000EF912F911F910F912FBE18950EE806B920
:1002000013B803E001B912B8089508EE0ABB1BBA8F
:100210000FE007BB18BAC69A15BE089501E005BBEA
:1002200009EF03BB00E109BF01E003E003BF08954C
:10023000089598EC7BD108B3007F036008BB4AD0D7
:1002400098E26CD118E20FD098E268D118E20BD096
:1002500098E264D118E007D098E260D11CE003D0A6
:1002600098E25CD1089532E01295212F2F7008B3E7
:10027000007F022B08BB2ED03A95B1F70895059167
:10028000003029F0102FEFDF98E248D1F8CF089521
:10029000DE9800916E0010E804FD10640F70102BC2
:1002A000E2DF98E23BD1DE9A0895DE981CE0DBDFC6
:1002B000DE9A98E233D10895DE9811E0D4DF92E01F
:1002C00035D1DE9A0895DE9812E0CDDF92E02ED18E
:1002D000DE9A0895DF9A91E021D1DF9892E01ED155
:1002E000089543E001C046E0E8E7F0E005E0502E65
:1002F000541202C01CE203C0119100E3100FB3DFDF
:100300009EE10CD101E0501A99F70895EDE7F0E075
:1003100002E0502E119100E3100FA5DF9EE1FED008
:1003200001E0501AB9F708951AE39DDF9EE1F6D077
:100330000895B6994CC00091830000FD25C000913E
:1003400081000F5F009381000A3009F047C00091DF
:100350008300016012E00127009383001092810066
:10036000DB9A11E010938F00F894209166001091B1
:10037000650038B734FF02C01F5F2F4F7894109389
:10038000690020936A002AC004FD28C040916A00D9
:1003900030916900F894209166001091650038B79B
:1003A00034FF02C01F5F2F4F7894131B240B1C3D9A
:1003B00035E0230798F000918300006114E00127E5
:1003C00000938300DB9A1AE010938F0007C010920D
:1003D0008100009183000E7E0093830008950091B8
:1003E000830003FF55C0077F0093830000917300D3
:1003F0001091740037DEA02FB12F0CEB1EE022DE2F
:100400001093840020938500009175001091760070
:1004100029DEA02FB12F00EF1EE414DE2DDE109395
:10042000860020938700EAE8F0E00091830002FF55
:1004300023C000918E00039500938E00043600F1D6
:1004400010928E003191419151916191310F421F73
:10045000511D611D629352934293329304E066955D
:100460005795479537950A95D1F701EE10DE3093F1
:1004700088004093890004C0119211921192108259
:100480001092730010927400109275001092760012
:10049000089507B1007E07B90091770000E400934A
:1004A0007700369A089500918F00002321F00A9575
:1004B00000938F0001C0DB980895DB9A94E136D059
:1004C000DB98089500E117E214D02093780008EE3D
:1004D00013E00FD02093790004E610E00AD02093B7
:1004E0007A000AE010E005D020937B0030927C0077
:1004F00008952FEF2395301A410AE0F7300E411E80
:1005000008950AE005D020937D0030927E00089582
:100510002FEF2395301AE8F7300E089504E00150CC
:10052000F1F791500000D1F70000089500916300A9
:10053000090F109163000117E1F70895009162001F
:10054000090F0C3308F00C53109162000117E1F70A
:1005500008951124F2E0FEBFEFE5EDBF1292E03600
:10056000F10509F4EEE1E115F105C1F74EDE46DED5
:1005700055DE78945EDEA0DEDD9A9FDFE0E5F6E0F2
:100580007EDE00E100936E0083DEE8E5F6E077DED4
:1005900009E100936E007CDEE4E5F6E070DE009198
:1005A0006700109168000A3008F44AC01092670092
:1005B000109268006EDFBDDE76DF11DF00918200F1
:1005C0000395009382000233D9F51092820002E075
:1005D00000936E005DDE0091840010918500302E46
:1005E000412E70DF7EDE08E000936E0051DE009148
:1005F0006000302E86DF8ADE97DE00916100302EAB
:1006000080DF84DE91DE00916200302E7ADF7EDEB4
:1006100002E100936E003CDE009188001091890099
:10062000302E412E4FDF5FDE0BE100936E0030DE97
:100630000091860010918700302E412E43DF51DE5D
:100640000091830002FF02C0DD9A01C0DD98A7CFB0
:10065000553D0000493D0000433D0000A2BCBA6F7B
:0606600063BFC43D000071
:00000001FF
