:020000020000FC
:1000000042C2189518951895189518951895189531
:1000100018951895189536C01895189570C01895AC
:100020001895189518952227112738E0889400FF15
:1000300002C01A0F2B1F27951795079588943A959C
:10004000B1F708953327222760E1889400FF02C0AA
:100050002A0F3B1F379527951795079588946A9522
:10006000A9F708951695079516950795089562E0E6
:1000700001C068E0889436952795179507956A958D
:10008000D1F708952FB60F931F932F933F9324B169
:1000900035B107B10F71003079F4009175001091FE
:1000A0007600020F131F009375001093760027B19E
:1000B000207E216027B91CC00130D9F40091730063
:1000C00010917400020F131F0093730010937400BB
:1000D00027B1207E206027B900917700015000935E
:1000E000770031F40091810008600093810001C025
:1000F000369A3F912F911F910F912FBE18952FB6D1
:100100000F931F932F93EF93FF93E0916700F0916C
:1001100068003196E0936700F0936800E091650015
:10012000F09166003196E0936500F0936600E091EF
:100130006300F09164003196E83E03E0F007D1F4EB
:10014000EE27FF270091620003950C3389F4002706
:100150001091610013951C3349F411272091600020
:100160002395283109F42227209360001093610021
:1001700000936200E0936300F0936400FF91EF91BD
:100180002F911F910F912FBE18950EE806B913B845
:1001900003E001B912B8089508EE0ABB1BBA0FE0DC
:1001A00007BB18BAC69A15BE089501E005BB09EF52
:1001B00003BB00E109BF01E003E003BF0895089518
:1001C00098EC4ED108B3007F036008BB4AD098E298
:1001D0003FD118E20FD098E23BD118E20BD098E261
:1001E00037D118E007D098E233D11CE003D098E271
:1001F0002FD1089532E01295212F2F7008B3007F80
:10020000022B08BB2ED03A95B1F708950591003026
:1002100029F0102FEFDF98E21BD1F8CF0895DE9878
:1002200000916E0010E804FD10640F70102BE2DFE7
:1002300098E20ED1DE9A0895DE981CE0DBDFDE9AAC
:1002400098E206D10895DE9811E0D4DF92E008D15B
:10025000DE9A0895DE9812E0CDDF92E001D1DE9AB9
:100260000895DF9A91E0F4D0DF9892E0F1D00895FC
:10027000E8E7F0E005E0502E119100E3100FBADF3F
:100280009EE1E6D001E0501AB9F70895B6994CC046
:100290000091810000FD25C000917F000F5F009359
:1002A0007F000A3009F047C000918100016012E030
:1002B00001270093810010927F00DB9A11E01093D8
:1002C0008D00F894209166001091650039B734FFD5
:1002D00002C01F5F2F4F78941093690020936A002B
:1002E0002AC004FD28C040916A0030916900F8944A
:1002F000209166001091650039B734FF02C01F5F7E
:100300002F4F7894131B240B1C3D35E0230798F0E6
:1003100000918100006114E0012700938100DB9AC5
:100320001AE010938D0007C010927F0000918100A9
:100330000E7E0093810008950091810003FF4FC05D
:10034000077F0093810000917300109174008ADE92
:10035000A02FB12F04E71EE075DE109382002093DA
:10036000830000917500109176007CDEA02FB12FE4
:100370000CE514E267DE7BDE109384002093850099
:10038000E8E8F0E00091810002FF1DC03191419149
:1003900051916191310F421F511D611D6293529322
:1003A0004293329300918C00039500938C000A30A5
:1003B00070F010928C0005E066955795479537953B
:1003C0000A95D1F704C011921192119210821092E5
:1003D00073001092740010927500109276000895C8
:1003E00007B1007E07B90091770004E00093770021
:1003F000369A089500918D00002321F00A9500930C
:100400008D0001C0DB980895DB9A94E129D0DB9838
:10041000089500E117E214D02093780008EE13E06D
:100420000FD02093790004E610E00AD020937A00E0
:100430000AE010E005D020937B0030927C00089504
:100440002FEF2395301A410AE0F7300E411E089530
:1004500004E00150F1F791500000D1F70000089539
:1004600000916300090F109163000117E1F70895EF
:1004700000916200090F0C3308F00C5310916200D8
:100480000117E1F708951124F2E0FEBFEFE5EDBF9B
:100490001292E036F10509F4EEE1E115F105C1F73C
:1004A0007BDE73DE82DE78948BDECDDEDD9AACDF20
:1004B000E2E3F5E0ABDE00E100936E00B0DEE8E3DE
:1004C000F5E0A4DE00916700109168000A3048F161
:1004D000109267001092680083DFD8DE8BDF2CDF7C
:1004E000009180000395009380000233D1F41092B4
:1004F000800005E000936E0092DE00918200109172
:100500008300302E412E85DFB3DE05E100936E00BF
:1005100086DE00918C0010918B00302E412E79DF09
:10052000A7DE0091810002FF02C0DD9A01C0DD98C4
:10053000C9CF55203D20000049203D200000432028
:0E0540003D200000A2BCBA6F63BFC43D0000A6
:00000001FF
